:020000040800F2
:1000000070060020B5010008BD010008BF0100080E
:10001000C1010008C3010008C5010008000000007C
:10002000000000000000000000000000C701000800
:10003000C901000800000000CB010008CD01000844
:10004000CF010008CF010008CF010008CF01000850
:10005000CF010008CF010008CF010008F503000818
:10006000CF010008CF010008CF010008CF01000830
:10007000CF010008CF010008CF010008CF01000820
:10008000CF010008CF010008CF010008CF01000810
:10009000CF010008CF010008CF010008CF01000800
:1000A000CF010008CF010008CF010008CF010008F0
:1000B000CF010008CF010008CF010008CF010008E0
:1000C000CF010008CF010008CF010008CF010008D0
:1000D000CF010008CF010008CF010008CF010008C0
:1000E000CF010008CF010008CF01000800F002F89E
:1000F00000F050F814A696E8000CB244B344DA4578
:1001000001D100F047F8BAE80F000FA696E83000DA
:10011000A5EB040504EB0607AAEB0704A7F101070A
:100120004FEA15154FEA3414A4F10104AC4201D38F
:1001300000F030F813F0010F18BFFB1A43F0010371
:1001400000F001F8DBE7184764190000841900008B
:10015000103A24BF78C878C1FAD8520724BF30C8F3
:1001600030C144BF04680C60704700007047000055
:100170000023002400250026103A28BF78C1FBD8B0
:10018000520728BF30C148BF0B6070471FB51FBD65
:1001900010B510BD00F044F81146FFF7F7FF00F06E
:1001A000B3FD00F062F803B4FFF7F2FF03BC00F008
:1001B00065F800000948804709480047FEE7FEE768
:1001C000FEE7FEE7FEE7FEE7FEE7FEE7FEE7FEE707
:1001D00004480549054A064B704700002D0C0008ED
:1001E000ED00000870000020700600207002002062
:1001F0007002002070477047704710B500F008F893
:10020000006810BD10B5044600F002F8046010BD8F
:100210000048704708000020004870470800002090
:100220007546FFF7F9FFAE4605006946534620F0D4
:100230000700854618B020B5FFF7CAFFBDE820408B
:100240004FF000064FF000074FF000084FF0000B92
:10025000AC46ACE8C009ACE8C009ACE8C009ACE801
:10026000C00921F007018D46704710B50446AFF371
:1002700000802046BDE81040FFF795BF01491820D7
:10028000ABBEFEE7260002007047000080B58AB0D2
:10029000ADF82600ADF82410ADF82220BDF92600F7
:1002A00001F09CFA40F20401C2F2000100910968D9
:1002B00001F0D2F940F20001C2F200010191096897
:1002C00001F0A4FA0790BDF9240001F087FA009923
:1002D000096801F0C1F90199096801F097FA0690DF
:1002E000BDF9220001F07AFA0099096801F0B4F929
:1002F0000199096801F08AFA059007980290069919
:10030000084601F083FA02990390084601F07EFA4C
:10031000039901F015F904900599084601F076FA61
:10032000049901F00DF901F0DFF800F0F4FC00F0A1
:1003300019FD0AB080BD000080B582B00190002098
:100340000090FFE700980199884209D2FFE74FF437
:100350007A7000F007F8FFE7009801300090F1E7AD
:1003600002B080BD82B0019000200090FFE70098AD
:100370000199B0EBC10F06D2FFE700BFFFE700987D
:1003800001300090F3E702B07047000080B586B0FE
:10039000ADF81200ADF81010ADF80E20BDF9120046
:1003A000BDF91010BDF90E20FFF770FF0290029802
:1003B00001F09AF80090019140F20000C2F20000B2
:1003C000006801F091F802460B461046194600F00D
:1003D000FBFC024600980B46019901F02FF918B971
:1003E000FFE70120059002E000200590FFE7059857
:1003F00006B080BD80B540F21440C4F20100006830
:100400008007002830D5FFE740F21441C4F2010113
:10041000086840F00200086040F26800C2F2000084
:100420000078012810D1FFE740F26801C2F2000114
:1004300000200870012000F0FDF941F69B20C0F675
:10044000000000F027FA0EE040F26801C2F200015D
:100450000120087000F0EEF941F6A020C0F600007F
:1004600000F018FAFFE7FFE780BD000080B582B01A
:1004700041F21801C4F20201086840F0010008606E
:10048000086840F00400086040F60002C4F201026F
:10049000106820F00F001060106840F00800106035
:1004A00040F60C01C4F20101086840F00100086048
:1004B000106820F0F0001060106840F080001060BC
:1004C000086840F0020008600821C4F201010868D1
:1004D000086040F21441C4F20101086840F00200D3
:1004E000086040F20C41C4F20101086840F00200CB
:1004F000086040F20841C4F20101086820F00200DF
:10050000086040F20041C4F20101086840F00200B6
:10051000086040F20441C4F20101086820F00200C2
:10052000086007200190002100F0CCFB019800F04A
:10053000B1FB02B080BD000041F21801C4F202011B
:10054000086840F00C00086040F60001C4F20101A8
:1005500008684FF6FF729043086008680022C1F2F5
:1005600011121043086040F60041C4F2010108680E
:1005700020F0FF000860086840F011000860704734
:1005800041F21801C4F20201086840F00800086056
:1005900041F21C01C4F20201086840F40010086036
:1005A00040F60041C4F20101086840F07F40086055
:1005B00045F20441C4F200012420088045F21C41A8
:1005C000C4F20001B420088045F22041C4F20001C9
:1005D0002520088045F20041C4F20001088840F05F
:1005E000010008807047000080B582B08DF80700D8
:1005F00000F02EF8D02000F061F89DF8070000F020
:1006000079F800F025F8D12000F058F845F20041C3
:10061000C4F20001088820F480600880088840F453
:1006200000700880FFE745F21440C4F20000008823
:100630004006002801D4FFE7F5E745F21040C4F278
:10064000000000888DF806009DF8060002B080BD0D
:1006500045F20041C4F20001088840F4807008802F
:10066000FFE745F21440C4F200000088C00708B953
:10067000FFE7F6E77047000045F20041C4F20001D1
:10068000088840F4007008807047000080B582B090
:100690008DF807008DF80610FFF7DAFFD02000F084
:1006A0000DF89DF8070000F025F89DF8060000F011
:1006B00039F8FFF7E1FF02B080BD000081B08DF88E
:1006C00003009DF8030045F21041C4F200010880C8
:1006D000FFE745F21440C4F20000008880070028BC
:1006E00001D4FFE7F5E745F21840C4F200000088A6
:1006F00001B0704781B08DF803009DF8030045F20A
:100700001041C4F200010880FFE745F21440C4F232
:10071000000000880006002801D4FFE7F5E701B0DB
:100720007047000081B08DF80300FFE745F21440E8
:10073000C4F2000000880006002801D4FFE7F5E7B6
:100740009DF8030045F21041C4F200010880FFE764
:1007500045F21440C4F2000000884007002801D48C
:10076000FFE7F5E701B0704780B500F0FBF9FFF750
:1007700007FF00F0A7F800F01DF800F0C1F8FFF740
:1007800075FE80BD80B582B040F60C41C4F2010117
:100790000191086840F0020008600120FFF7CCFDDD
:1007A0000199086820F0020008600220FFF7C4FDEC
:1007B00002B080BD80B582B0FFF7BEFE012001907F
:1007C000FFF7BAFD0320009000F020F8009800F039
:1007D0001DF8009800F01AF8022000F017F80198B0
:1007E000FFF7AAFD282000F025F80198FFF7A4FDE7
:1007F0000C2000F01FF8019800F01CF841F693203F
:10080000C0F6000000F046F802B080BD80B582B0AE
:100810008DF8070040F60C01C4F20101086800F0F1
:100820000F009DF8072040EA02100860FFF7AAFFBA
:1008300002B080BD80B582B08DF8070040F60C4153
:10084000C4F20101086820F0010008609DF807006B
:100850000009FFF7DBFF9DF80700FFF7D7FF02B0A5
:1008600080BD000080B582B08DF8070040F60C41D5
:10087000C4F20101086840F0010008609DF807001B
:100880000009FFF7C3FF9DF80700FFF7BFFF02B0A5
:1008900080BD000080B582B0019000200090FFE78D
:1008A00001980099405C50B1FFE701980099405CC5
:1008B000FFF7D8FFFFE7009801300090F0E702B0A3
:1008C00080BD000041F21801C4F20201086840F046
:1008D0001000086041F20401C4F20101086820F42C
:1008E00070000860086840F44010086041F20C0194
:1008F000C4F20101086820F400500860704700004D
:1009000080B582B06B2000210191FFF7BFFE0199F5
:100910001A20FFF7BBFE01991C20FFF7B7FE382015
:100920000121FFF7B3FE37201021FFF7AFFE02B021
:1009300080BD000080B586B00590049103923B20F5
:10094000FFF752FE00903C20FFF74EFE009940EA70
:100950000120059908803D20FFF746FE01903E20CA
:10096000FFF742FE019940EA0120049908803F20E8
:10097000FFF73AFE02904020FFF736FE029940EA68
:1009800001200399088006B080BD000080B584B0C6
:1009900040F26801C2F200010120019008704FF49A
:1009A0007A70FFF7C9FC0198FFF744FF41F6A620D3
:1009B000C0F60000FFF76EFFFFE740F26800C2F2EA
:1009C00000000078012834D1FFE70DF10E0003A9E3
:1009D0000DF10A02FFF7AEFFBDF90E00BDF90C10D4
:1009E000BDF90A20FFF7D2FC012818D1FFE701204A
:1009F000FFF720FF41F68E20C0F60000FFF74AFF08
:100A000041F20C01C4F20101086820F400500860B2
:100A100040F26801C2F200010020087008E041F2D3
:100A20001001C4F20101086840F400500860FFE7BB
:100A300000E0FFE7C1E7000080B500F001F880BDED
:100A400084B000200390029041F20001C4F2020140
:100A5000086840F480300860FFE741F20000C4F20B
:100A60000200006800F40030029003980130039007
:100A7000FFE702990020019039B9FFE70398B0F52C
:100A8000A06018BF01200190FFE70198C00700286F
:100A9000E3D1FFE741F20000C4F2020000688003E6
:100AA000002803D5FFE70120029002E00020029019
:100AB000FFE70298012851D1FFE742F20001C4F29A
:100AC0000201086840F010000860086820F0070084
:100AD0000860086840F00200086041F20401C4F2B6
:100AE000020100910868086008680860086840F41E
:100AF00080600860086820F47C100860086840F492
:100B0000E810086041F20001C4F20201086840F0F8
:100B100080700860FFE741F20000C4F20200006844
:100B20008001002801D4FFE7F5E741F20401C4F297
:100B30000201086820F003000860086840F0020025
:100B40000860FFE741F20400C4F20200006800F010
:100B50000C00082801D0FFE7F4E700E0FFE704B04D
:100B60007047000081B041F20001C4F20201086840
:100B700040F480300860FFE741F20000C4F2020058
:100B800000688003002801D4FFE7F5E741F2040183
:100B9000C4F202010091086840F4E010086008689F
:100BA00040F400400860086840F48060086008680D
:100BB00040F48030086041F20001C4F2020108688C
:100BC00040F080700860FFE741F20000C4F20200CC
:100BD00000688001002801D4FFE7F5E741F2040135
:100BE000C4F20201086840F002000860FFE741F229
:100BF0000400C4F20200006810F00C0F01D1FFE7FE
:100C0000F5E741F20001C4F20201086820F001009A
:100C10000860FFE741F20000C4F2020000688007AC
:100C2000002801D5FFE7F5E701B0704780B541F234
:100C30000002C4F20202106840F00100106041F2AC
:100C40000401C4F2020108680023CFF6FF03184034
:100C5000086010684FF6FF73CFF6F6631840106017
:100C6000106820F480201060086820F4FE000860FE
:100C700041F20801C4F202014FF41F000860FFF7BF
:100C8000DBFE4EF60851CEF200014FF00060086026
:100C900080BD000081B08DF803009DF9030000289D
:100CA0000ED4FFE79DF9031001F01F0201209040D0
:100CB0004A094EF20011CEF2000141F82200FFE78E
:100CC00001B0704782B08DF8070000919DF90700D0
:100CD00000280AD4FFE7009800019DF907104EF2A2
:100CE0000042CEF2000288540BE0009800019DF80B
:100CF000071001F00F014EF61452CEF20002885494
:100D0000FFE702B07047000080B5FFF72DFDFFF749
:100D10003DFE002080BD2DE9F04106460F4600F063
:100D20000FFA041E0D4618BF0120284320F0004092
:100D3000C0F17F6000F1E040C00F0ED0301C18BF42
:100D40000120384320F00040C0F17F6000F1E04016
:100D5000C00F04BF0120FFF755FA20462946BDE821
:100D6000F081000021F0004201F00043A2F1605246
:100D7000B2F5801F28BFD2F17F6C0BD95FEA001C4F
:100D800043EAC20242EB507018BF704728BF20F000
:100D900001007047B2F5801FBCBF184670474FEA8C
:100DA000410C1CF5001F02D2084600F0F6BD70B5DC
:100DB00000F072F900000089FFF7F6BF4FF0004025
:100DC000A0F580007047000010B591EA030F48BFFE
:100DD00083F0004300F1A282841A71EB030C05D268
:100DE000121943EB0C03001B61EB0C014FEA115489
:100DF000A4EB135CDFF81CE11EEA430F18BF9EEA68
:100E0000445F00F0748021EA045123EA0E0343F4A6
:100E10008013DCF1200E32D322FA0CFE10EB0E0010
:100E200023FA0CFE41EB0E01CCF1200E03FA0EFE6C
:100E300010EB0E00CCF1200E51F10001B1F5801F36
:100E400032D201EB045112FA0EF2BDE8104058BF45
:100E50007047401C38BF5FEA420218BF7047002845
:100E600014BF20F0010041F100014FEA410313F5E6
:100E7000001F38BF7047A1F1C04100F05BB9012AE3
:100E800043EB0302ACF1200CDCF11F0E32BF4FF03C
:100E9000000E23FA0CF310EB030041EB0451B4EB0A
:100EA000115FD0D0A1EB045101F58011490801EB8D
:100EB00004515FEA30000ED350F1000038BF12FA3F
:100EC0000EFE08D1BDE81040C9E7401C38BF5FEAFC
:100ED0004202CAD1C3E7BDE810404FEA410313F50F
:100EE000001F38BF7047A1F1C04100F023B99EEA4E
:100EF000445F08D011EA5E0FBDE8104004BF01F066
:100F0000004100207047BDE8104070B500F0C4F803
:100F100064FBBE3E0000E0FF491058BFC1F14041F4
:100F20005B1058BFC3F140438B42EFF30080704722
:100F300051EA030C17D41CF5801F58BFBCF5801F65
:100F400000F10680994218BF704708BF9042704771
:100F500007D711F5801F58BF13F5801F19D4994288
:100F60007047894270471CF5801F08D5BCF5801F6B
:100F7000F7D58B4218BF704708BF824270474FF4C5
:100F8000001C1CEB410F38BF1CEB430F01D28B42FE
:100F9000704770B500F080F8922449004FF000517E
:100FA0004FF08053FFF7B8BF51EA030C17D41CF57C
:100FB000801F58BFBCF5801F00F10680994218BF02
:100FC000704708BF9042704707D711F5801F58BF80
:100FD00013F5801F19D499427047894270471CF558
:100FE000801F08D5BCF5801FF7D58B4218BF70470E
:100FF00008BF824270474FF4001C1CEB410F38BF02
:101000001CEB430F01D28B42704770B500F044F8DF
:10101000922449004FF080514FF00053FFF77CBFFE
:1010200051EA030C17D41CF5801F58BFBCF5801F74
:1010300000F10680994218BF704708BF9042704780
:1010400007D711F5801F58BF13F5801F19D4994297
:101050007047894270471CF5801F08D5BCF5801F7A
:10106000F7D58B4218BF704708BF824270474FF4D4
:10107000001C1CEB410F38BF1CEB430F01D28B420D
:10108000704770B500F008F8922449004FF0005105
:101090004FF08053FFF740BF0EF1020E2EF0030E0B
:1010A0005EF8046B364205D4012A43EB030515F5BF
:1010B000001F12D8012841EB010C1CF5001F0CD8B1
:1010C0000ED14FEAD17C0CEB4C0C0CF1020C15F557
:1010D000001F08BF4CEBD37C04E04FF0080C01E08C
:1010E0004FEAD37C0CEB4C0526FA05F606F0070612
:1010F000B6F1040C06D20EEB860CBDE870404CF045
:10110000010C6047DFE80CF0090B02024FF00041D0
:10111000A1F500214FF0000070BD194610460128CE
:1011200051EB010418BFD4F5001484BF002001F076
:10113000004170BD0808A0F500114FEA3101704769
:101140002DE9F04101F5801CBCF5001FC0F2C38001
:101150004FEA115C21EA0C5141F480110CF1FD0CB5
:101160005FEA5C0C0CF5C07C01D340004941890268
:1011700041EA905187023BA48E0EA45D0A0C04FB49
:1011800004F602FB06F6C6F14046A4FB0662F60D25
:1011900046EA422606FB06F4A4FB01235242C3F1B1
:1011A000404338BF5B1EA6FB02420024E6FB03243B
:1011B000D20B42EA4446A6FB0623A1FB02E2A3FBB4
:1011C00007E4A4184FF0000252F10002E3FB0142D1
:1011D0006442C2F1404E38BFAEF1010EA6FB0423BB
:1011E0004FF00002E6FB0E32A2FB0346B6194FF0A9
:1011F000000454F10004E2FB0264A1FB06E6A4FB38
:1012000007E816EB08064FF0000858F10008E4FB69
:1012100001687642C8F1405838BFA8F10108A2FB26
:1012200006E4A3FB08E52D194FF0000454F1000477
:10123000E2FB0854A1FB05E6A7FB04E818EB06084F
:101240004FF0000656F10006E1FB048618F1200578
:1012500056F10006A80940EA8660B109A8F11B080A
:1012600008F03F08B8F10A0F1CD901EB0C51BDE89A
:10127000F08100BFFCF5EEE8E2DDD8D3CFCBC7C3E9
:10128000C0BDB9B6B4B1AEACA9A7A5A3A19F9D9BA3
:101290009A9896959392908F8D8C8B898887868566
:1012A00084838281A0FB006800FB01F208EB420806
:1012B000B8EB872807D5341858EB0104D5D5401C66
:1012C00051F10001D1E7341A78EB0104CDD4401E6E
:1012D00071F10001C9E75FEA4C0C5FEA9C5C0DD13B
:1012E00005D301F000414FF00000BDE8F081BDE8FA
:1012F000F04170B5FFF7D0FE6DDBFFBEBDE8F041F9
:1013000001494FF0000070470000F87F10B591EAE6
:10131000030F48BF83F000433FF55EAD841A71EBC5
:10132000030C07D28CF0004C121943EB0C03001B8A
:1013300061EB0C014FEA1154A4EB135CDFF8A4E15C
:101340001EEA430F18BF9EEA445F00F0B48021EA12
:10135000045123EA6E035242C3EB6E0338BF5B1E97
:10136000DCF1200E25D322FA0CFE10EB0E0043FA1E
:101370000CFE41EB0E01CCF1200E03FA0EFE10EB39
:101380000E00CCF1200E51F1000129D401EB0451E3
:1013900012FA0EF2BDE8104058BF7047401C1CBF47
:1013A000B2F1004F704700280CBF491C20F001002B
:1013B000704712EB020E43EB030218BF4FF0010E11
:1013C0004EEA4202ACF1200CDCF11E0E56D943FA73
:1013D0000CFE10EB0E00CCF11E0E51F1FF31D5D5F5
:1013E0000EF1010E12FA0EFE404141EB010101EB3C
:1013F000445C5FEA5C5C10D901EB045110EBDE70D9
:1014000038BFBEF1004FBDE8104018BF704700283C
:101410000CBF491C20F00100704734D24FEAD42C95
:1014200024F4006411F500111BD0B1FA81F20B3ADB
:10143000A41AA41ED2F12003914030FA03F31943F9
:10144000904001EBCC7101EB0451002CBDE8104041
:10145000A8BF704701F1C04101F000414FF000000A
:101460007047B0FA80F310FA03F102D1BDE81040E2
:101470007047E41A173C4805C90AE2E701EB04513A
:10148000BDE81040704749104FEA300001EB0451AD
:10149000BDE8104002E04FF0000170474A0008BF6D
:1014A0000042F8D0B2F5001F28BF704701F000419C
:1014B0004FF0000070479EEA445F07D011EA5E0FCC
:1014C000BDE8104004BF002100207047BDE8104077
:1014D00070B5FFF7E1FD00BF40DFF63E104683F038
:1014E000004170470000E0FF43004FEAD30C4FEA91
:1014F0003C0C43401FBF40070CF1605113F0FE4FFE
:1015000070471CF0006F03D10CF0004100207047C1
:101510000CF0004343EA507040EACC0010B500F0F4
:10152000F6F900BF000000924FEA0001FFF702BE8B
:101530004FF00041A1F500214FF00000704700007E
:1015400090EA010F48BF81F0004100F13282421A57
:101550003CBF801A89184FEAD052A2EBD1534FF00A
:101560007F4C1CEA410F18BF9CEA026F00F03B80E1
:101570004FF0004C4CEA00204CEA012121FA03FC18
:1015800010EB0C0C1ED202F1FF325FEA1C2040EB84
:10159000C25038BF70471CF07F0F4FEA400C18BF95
:1015A000BCF17F4F38BF7047C3F12003994008BF9B
:1015B00020F00100BCF17F4F38BF7047A0F1C04060
:1015C00000F0EBB94FEA3C00000A40EBC25028BFE4
:1015D0001CF0FF0F4FEA400CE6D018BFBCF17F4F64
:1015E00038BF7047EAE79CEA026F05D010EA5C0F4B
:1015F00008BF00F00040704710B500F088F900BF48
:1016000064FBBE3E10B5FFF793FC0CBF0120002029
:1016100010BD10B5FFF78CFC14BF0120002010BDD9
:1016200010B5FFF7C1FC8CBF0120002010BD10B524
:10163000FFF7BAFC2CBF0120002010BD10B5FFF74A
:10164000EFFC94BF0120002010BD10B5FFF7E8FCAF
:1016500034BF0120002010BD4FF47F0C1CEAD012D3
:101660001EBF1CEAD11392EA0C0F93EA0C0F00F094
:10167000858090EA010F48BF42F4807240F4000C6C
:1016800041F400002CF07F4120F07F4000B5A2EB38
:10169000030281420FF2081CACEB504E9EF800E0B2
:1016A000C0F100004FEA4E0E00FB0EFC38BF4900AF
:1016B0004FEA2C1C0CFB0EF34FEACE1E0EEB635EC2
:1016C0004FEA112C0EFB0CFC4FEAC1214FEA1C53D0
:1016D00000FB031102F5FA024FEA112C0EFB0CFC81
:1016E0004FEA01314FEADC4C00FB0C1142EB224285
:1016F000C14228BF09184CEB03335DF804EB10EB33
:10170000410143EBC250B2F57C0F38BF704729D579
:1017100012F0F00F1CBF00F1C04000F00040704715
:10172000008182838485868788898B8C8D8E8F91BA
:101730009293959697999A9C9D9FA0A2A3A5A7A8DE
:10174000AAACAEB0B2B3B5B7B9BCBEC0C2C5C7C90A
:10175000CCCED1D4D7D9DCDFE2E6E9ECF0F3F7FA6E
:10176000FE0000004FEA400C0CF1807CBCF17E4F83
:1017700028BF7047B0F1C04000F00FB90CEAD11398
:1017800090EA010F48BF42F48072624538BF63455A
:1017900007D213F47F0F16D080EA010000F000405A
:1017A000704710B500F0B3F8097EFC3E00F005B8B4
:1017B00080EA010000F00040704780EA010000F07C
:1017C000004000F0EAB812F47F0F04BF02487047EF
:1017D00080EA010000F0E1B80000C07F10F0004195
:1017E00048BF4042B0FA80F310FA03F2C3F19D0300
:1017F0000BD051EAC35101EB1220530638BF70479A
:1018000000F1010008BF20F0010070474FF47F0C89
:101810001CEAD0121EBF1CEAD11392EA0C0F93EA05
:101820000C0F00F0478090EA010F48BF42F480722D
:101830004FF0004C4CEA00204CEA012102EB03027D
:10184000A0FB0113A2F50002002918BF43F0010319
:101850005B0028BF4FEA330342EB22425FEA132CBE
:101860004CEBC2502EBFBCEB436FB2F57C0F704700
:101870004FEA036CBCF1004F08BF20F00100B2F545
:101880007C0F38BF70470BD582F0FF0212F5803F06
:10189000C8BF704700F1C040D8BF00F0004070479B
:1018A00000F5000C5FEA4C0C48BF7047B0F1C04037
:1018B00000F073B80CEAD11390EA010F48BF42F46C
:1018C0008072624538BF634504D280EA010000F0AF
:1018D0000040704710B500F01AF800BF8900013EC3
:1018E00000F007B800F009B85FEA410C5FEA1C6C31
:1018F00008D080EA010000F050B85FEA400C5FEACF
:101900001C6CF6D14FF00040A0F5800070470EF13E
:10191000020E2EF0030E5EF8044B244204D44FEA6C
:101920004102B2F17F4F11D84FEA4003B3F17F4F2C
:101930000CD80ED14FEAD07C0CEB4C0C0CF1020C05
:10194000B2F17F4F08BF4CEBD17C04E04FF0080CA4
:1019500001E04FEAD17C0CEB4C0324FA03F404F0D1
:101960000704B4F1040C06D20EEB840CBDE8104061
:101970004CF0010C6047DFE80CF0070802024FF062
:101980000040A0F5800010BD0846420018BFD2F10B
:10199000807288BF00F0004010BDFF2141EAD050A6
:1019A000C005704790EA010F48BF81F000413FF544
:1019B000CEAD421A04D882F00042A0EB02001144DE
:1019C0004FEAD052A2EBD1534FF07F4C1CEA410FAB
:1019D00018BF9CEA026F4AD04FF0004C4CEA00203E
:1019E0004CEA012121FA03FCB0EB0C0C0FD412F0ED
:1019F000FE0F36D05FEA4C001DD5001240EBC250FE
:101A000038BF70471CF03F0F18BF70470BE05FEA0C
:101A10001C20A2F1010240EBC25038BF70471CF0FD
:101A20007F0F18BF7047C3F12003994014BF401EB9
:101A300020F0010070474FEA1223800808BF70476A
:101A4000B0FA80FCA2EB0C02CCF1280C60FA0CF08E
:101A500093EA122F04BF00EBC25070474FEAC370E5
:101A60007047130A5FEADC1008BF7047F6E79CEA8C
:101A7000026F04D010EA5C0F08BF0020704710B559
:101A8000FFF745FF40DFF63E81F0004070474641DA
:101A90004C4C0057454C4C434F4D004F564552005F
:101AA000535441525400537461727400CC1A0008AC
:101AB000000000200800000050010008D41A0008AF
:101AC000080000206806000070010008C3F51C41F2
:041AD000000080464C
:04000005080001B539
:00000001FF
